:100000000C942C000C9454000C9454000C94560046
:100010000C9454000C9454000C9454000C94540010
:100020000C9454000C9454000C9454000C94540000
:100030000C9454000C9454000C9454000C945400F0
:100040000C9454000C9454000C9454000C945400E0
:100050000C945400B402BB0211241FBECFE5D4E0BF
:10006000DEBFCDBF10E0A0E6B0E0E4E2F7E002C002
:1000700005900D92A837B107D9F720E0A8E7B0E0C6
:1000800001C01D92A239B207E1F710E0C6E5D0E049
:1000900004C02297FE010E948103C435D107C9F72D
:1000A0000E948A020C9485030C9400001F920F9208
:1000B0000FB60F9211242F933F934F935F936F933B
:1000C0007F938F939F93AF93BF93EF93FF93CF93C0
:1000D000DF931F92CDB7DEB712BE80B344E650E087
:1000E00066E00E9494028823E9F080917B0087708B
:1000F00090E005972CF0EBE7F0E08081887F80832B
:10010000EBE7F0E08081982F977099839F5F97705D
:10011000887F892B8083BE016F5F7F4F8DE790E0E2
:100120000E94E30280B342E650E063E00E94940242
:10013000882309F446C020917B00269526952695B4
:100140002770822F90E0853091053CF0EBE7F0E0DE
:100150008081877C8860808319C0322F3F5F377031
:10016000EBE7F0E0330F330F330F2081277C232B95
:1001700020838130910589F01CF4892B39F021C04E
:100180008230910589F00397E1F415C081E090E099
:10019000909367008093660014C08AE090E090938B
:1001A0006700809366000DC084E690E0909367003E
:1001B0008093660006C088EE93E09093670080937A
:1001C000660080B340E650E062E00E94940288231B
:1001D00009F456C080917B00829586958695837040
:1001E00020917C002170220F220F282B822F90E07B
:1001F0008430910564F0EBE7F0E080818F738064D8
:100200008083ECE7F0E080818E7F808322C02F5FC7
:10021000EBE7F0E0422F4295440F440F407C3081E1
:100220003F73342B308322FB332730F9ECE7F0E0C7
:1002300020812E7F232B20838130910581F01CF4B7
:10024000892B39F01DC08230910579F00397C1F4F4
:1002500012C064E08DE790E00E94440311C061E0A9
:100260008DE790E00E9444030BC062E08DE790E0D0
:100270000E94440305C063E08DE790E00E944403C0
:10028000C99B07C0CA9B05C080917800882309F4E8
:1002900046C080917900811131C081E0809378005F
:1002A0003BB52AB5932F80E0822BC99B13C02091C8
:1002B000660030916700AC01409550954217530796
:1002C00028F0820F931F9BBD8ABD12C08FEF8BBD9C
:1002D0008ABD0EC020916600309167008217930797
:1002E00028F0821B930B9BBD8ABD02C01BBC1ABCAD
:1002F0008AE080937A0081E080937900C99B0FC0E7
:10030000CA9B0DC080917A00882329F08150809388
:100310007A00811104C0109278001092790086B1A1
:10032000369A0F90DF91CF91FF91EF91BF91AF91EE
:100330009F918F917F916F915F914F913F912F91FD
:100340000F900FBE0F901F9018958130910541F4CA
:100350006F3F7F4F71F48DE790E00E94C2020895D5
:10036000892B39F46F3F7F4F21F48DE790E00E9495
:1003700074030895662311F0AC9A01C0AC988823E9
:1003800014F4AB9A01C0AB9886FF02C0AA9A01C0D0
:10039000AA9885FF02C0A99A01C0A99884FF02C04B
:1003A000A89A01C0A89800C0AE9A92E09A95F1F779
:1003B00000C0AE9883FF02C0AB9A01C0AB9882FF29
:1003C00002C0AA9A01C0AA9881FF02C0A99A01C0DE
:1003D000A99880FF02C0A89A01C0A89800C0AE9A50
:1003E00092E09A95F1F700C0AE98AB9AAA9AA99AB2
:1003F000A89A611109C0843038F48FE999E1019716
:10040000F1F700C00000089595ED9A95F1F700000E
:10041000089560E00E94BA01089581E00E940902F7
:10042000089561E00E94BA010895CF93DF93EC0133
:100430008991882329F00E94110289918111FBCFB3
:10044000DF91CF910895A69AA49AA39AA29AA19A0D
:10045000A09AAE98AC98AB9AAA9AA99AA89A8FE556
:100460009AEE0197F1F700C00000AB98AA9800C07F
:10047000AE9A92E09A95F1F700C0AE988FE090E4C2
:100480000197F1F700C00000AE9A92E09A95F1F75B
:1004900000C0AE988FE891E00197F1F700C000002E
:1004A000AE9A92E09A95F1F700C0AE9885ED8A95E4
:1004B000F1F70000A89800C0AE9A92E09A95F1F783
:1004C00000C0AE9885ED8A95F1F70000A89800C0AD
:1004D000AE9A92E09A95F1F700C0AE9882E08A95C4
:1004E000F1F700C0AB9A00C0AE9A92E09A95F1F78E
:1004F00000C0AE9885ED8A95F1F7000088E00E9473
:1005000009020E940D0286E00E9409028CE00E940E
:10051000090208950E9423020E940D0288E690E0DD
:100520000E9415027894FFCF90E09C0102C035959F
:1005300027956A95E2F720FD05C081E0FA018083E6
:1005400080E00895FA018081882361F08181882309
:1005500019F08150818306C086E4FA0181831082FC
:1005600081E0089580E008956FEF7FEF81E090E0F3
:100570000E94A50108956FEF7FEF80E090E00E9458
:10058000A5010895FC018081887F808381E88683AE
:1005900099E097831086118620E421839283138249
:1005A0001482838791E0948715861686808B81E17B
:1005B000818B128A138A1FBC1EBC1DBC1CBC1BBCB9
:1005C0001ABC8D9A08958EB5887F8EBDFB018081FF
:1005D000823099F028F4882341F08130C9F409C0B1
:1005E000833079F08430A1F410C08EB581608EBD67
:1005F00008958EB582608EBD08958EB583608EBDE0
:1006000008958EB584608EBD08958EB585608EBDCB
:100610000895FB012081223089F018F42130B1F4D3
:1006200005C0233079F0243089F404C09C012A5F8E
:100630003F4F0EC09C012F5F3F4F0AC09C01255FBA
:100640003F4F06C09C01205F3F4F02C020E030E0DA
:10065000822F932F0895CF93DF931F92CDB7DEB7EC
:10066000FC01208127702983BE016F5F7F4F0E94AC
:100670000903FC018BB582838AB5838381E084837F
:100680000F90DF91CF910895FF920F931F93CF9317
:10069000DF931F92CDB7DEB78C01F62E0E942B039D
:1006A0006F2D6770F8018081887F862B8083698336
:1006B000BE016F5F7F4FC8010E940903FC0180816A
:1006C0008FBD81818EBD8481882329F082818BBD7D
:1006D00083818ABD02C01BBC1ABC0F90DF91CF91F1
:1006E0001F910F91FF90089589B78F7E89BF1FBC1E
:1006F0001EBC8D981DBC1CBC1BBC1ABC0895EE0F03
:10070000FF1F0590F491E02D099410E0C6E5D0E0BC
:1007100004C0FE010E9481032296C835D107C9F7A3
:04072000F894FFCF7B
:10072400004600460046010048656C6C6F20576F18
:08073400726C642E2E2E0000F1
:00000001FF
