S00E000050776D47656E2E73726563C8
S11300000C94AD000C94D5000C94D5000C94800392
S11300100C94D5000C94D5000C94D5000C94D50008
S11300200C94D5000C94D5000C94D5000C94D500F8
S11300300C94D5000C94D5000C94D5000C94D500E8
S11300400C94D5000C94D5000C94D5000C94D500D8
S11300500C94D5006E616E00696E660000407A10E3
S1130060F35A00A0724E18090010A5D4E80000E865
S11300707648170000E40B54020000CA9A3B0000C3
S113008000E1F505000080969800000040420F0052
S11300900000A08601000000102700000000E80313
S11300A0000000006400000000000A0000000000DE
S11300B00100000000002C76D888DC674F0823DF9D
S11300C0C1DFAE59E1B1B796E5E3E453C63AE65170
S11300D0997696E8E6C28426EB898C9B62ED407C97
S11300E06FFCEFBC9C9F40F2BAA56FA5F490055A33
S11300F02AF75C936B6CF9676DC11BFCE0E40D4758
S1130100FEF520E6B500D0ED902E0300943577057A
S11301100080841E080000204E0A000000C80C3332
S11301203333330F986E12831141EF8D2114893BC1
S1130130E65516CFFEE6DB18D1844B381BF77C1D41
S1130140901DA4BBE424203284725E228100C9F194
S113015024ECA1E53D27FF04040511241FBECFE5CF
S1130160D4E0DEBFCDBF10E0A0E6B0E0E4E2FBE106
S113017002C005900D92A03AB107D9F720E0A0EA99
S1130180B0E001C01D92AB3BB207E1F710E0CCEA4E
S1130190D0E004C02197FE010E94C90BCB3AD107DD
S11301A0C9F70E94D6040C94850D0C940000CF93DB
S11301B0DF93CDB7DEB785E390E025E330E0F901C6
S11301C020812F7BFC012083DF91CF910895CF9371
S11301D0DF93CDB7DEB785E390E025E330E0F901A6
S11301E020812064FC012083DF91CF910895CF9377
S11301F0DF93CDB7DEB784E390E024E330E0F90188
S113020020812064FC012083DF91CF910895CF9356
S1130210DF9300D0CDB7DEB789836A838A818823D0
S113022051F085E390E025E330E0F901208120617D
S1130230FC01208309C085E390E025E330E0F90167
S113024020812F7EFC0120838981882354F485E357
S113025090E025E330E0F90120812860FC0120834F
S113026009C085E390E025E330E0F9012081277F90
S1130270FC0120838981882F90E080749927892B41
S113028051F085E390E025E330E0F901208124601A
S1130290FC01208309C085E390E025E330E0F90107
S11302A020812B7FFC0120838981882F90E080723C
S11302B09927892B51F085E390E025E330E0F9019B
S11302C020812260FC01208309C085E390E025E3BE
S11302D030E0F90120812D7FFC0120838981882F62
S11302E090E080719927892B51F085E390E025E314
S11302F030E0F90120812160FC01208309C085E3FD
S113030090E025E330E0F90120812E7FFC01208379
S113031000C00E94E700F2E0FA95F1F700C00E94E5
S1130320D7008981882F90E088709927892B51F014
S113033085E390E025E330E0F90120812860FC01A9
S1130340208309C085E390E025E330E0F9012081B2
S1130350277FFC0120838981882F90E0847099276E
S1130360892B51F085E390E025E330E0F901208109
S11303702460FC01208309C085E390E025E330E09C
S1130380F90120812B7FFC0120838981882F90E053
S113039082709927892B51F085E390E025E330E0C2
S11303A0F90120812260FC01208309C085E390E0EB
S11303B025E330E0F90120812D7FFC012083898130
S11303C0882F90E081709927892B51F085E390E084
S11303D025E330E0F90120812160FC01208309C07C
S11303E085E390E025E330E0F90120812E7FFC01D4
S11303F0208300C00E94E700F2E0FA95F1F700C004
S11304000E94D70085E390E025E330E0F9012081E4
S11304102860FC01208385E390E025E330E0F901C6
S113042020812460FC01208385E390E025E330E013
S1130430F90120812260FC01208385E390E025E31B
S113044030E0F90120812160FC0120838A81882326
S113045051F48981843038F48FE999E10197F1F7F7
S113046000C0000004C095ED9A95F1F700000F90CC
S11304700F90DF91CF910895CF93DF931F92CDB763
S1130480DEB7898360E089810E9407010F90DF91C4
S1130490CF910895CF93DF931F92CDB7DEB78983B1
S11304A0898180580E943C020F90DF91CF9108957A
S11304B0CF93DF93CDB7DEB781E00E943C02DF919A
S11304C0CF910895CF93DF931F92CDB7DEB7898381
S11304D061E089810E9407010F90DF91CF91089517
S11304E01F93CF93DF9300D0CDB7DEB79A83898370
S11304F003C0812F0E94620289819A819C012F5F2F
S11305003F4F3A832983FC011081112391F70F9007
S11305100F90DF91CF911F910895CF93DF93CDB7C3
S1130520DEB70E94F70084E390E024E330E0F901B1
S113053020812061FC01208384E390E024E330E007
S1130540F90120812860FC01208384E390E024E306
S113055030E0F90120812460FC01208384E390E0F1
S113056024E330E0F90120812260FC01208384E34C
S113057090E024E330E0F90120812160FC01208334
S11305800E94D70085E390E025E330E0F901208163
S11305902F7EFC01208385E390E025E330E0F90120
S11305A020812860FC01208385E390E025E330E08E
S11305B0F90120812460FC01208385E390E025E398
S11305C030E0F90120812260FC01208385E390E082
S11305D025E330E0F90120812160FC0120838FE5CF
S11305E09AEE0197F1F700C0000085E390E025E35F
S11305F030E0F9012081277FFC01208385E390E02E
S113060025E330E0F90120812B7FFC01208300C029
S11306100E94E700F2E0FA95F1F700C00E94D700CB
S11306208FE090E40197F1F700C000000E94E7001A
S113063092E09A95F1F700C00E94D700EFE8F1E04C
S11306403197F1F700C000000E94E700F2E0FA954C
S1130650F1F700C00E94D70085ED8A95F1F70000FC
S113066085E390E025E330E0F90120812E7FFC0151
S1130670208300C00E94E700F2E0FA95F1F700C081
S11306800E94D70085ED8A95F1F7000085E390E09C
S113069025E330E0F90120812E7FFC01208300C096
S11306A00E94E700F2E0FA95F1F700C00E94D7003B
S11306B082E08A95F1F700C085E390E025E330E01D
S11306C0F90120812860FC01208300C00E94E7001A
S11306D0F2E0FA95F1F700C00E94D70085ED8A9503
S11306E0F1F7000088E00E943C020E94580286E074
S11306F00E943C028CE00E943C02DF91CF9108955D
S11307001F920F920FB60F9211242F933F934F9382
S11307105F936F937F938F939F93AF93BF93EF9365
S1130720FF93CF93DF931F92CDB7DEB712BE80B392
S113073044E650E066E00E94E104882301F18091E0
S1130740A3008F5F8770282F30E0253031053CF4FB
S1130750E3EAF0E09081987F892B808305C0E3EA87
S1130760F0E08081887F80838091A30087708983F3
S1130770BE016F5F7F4F86EA90E00E94400580B320
S113078042E650E063E00E94E104882309F442C099
S1130790E3EAF0E09081892F8695869586958F5FB0
S11307A08770282F220F220F220F977C922B908381
S11307B090E08430910524F08081877C80830DC093
S11307C08130910589F01CF4892B11F506C0823023
S11307D0910589F00397B1F01BC081E090E09093FC
S11307E067008093660014C08AE090E090936700ED
S11307F0809366000DC084E690E090936700809338
S1130800660006C088EE93E09093670080936600CC
S11308101092A50080B340E650E062E00E94E1043B
S1130820882309F449C0A3EAB0E03C91932F929540
S1130830969596959370E4EAF0E02081822F81707A
S1130840880F880F892B8F5F8770982F9295990F47
S1130850990F907C3F73392B3C93982F96959695DE
S11308602E7F292B208390E08330910554F0FD01E5
S113087080818F738083E4EAF0E080818E7F8083BF
S113088008C08130910559F08230910571F0892BAF
S113089089F464E086EA90E00E949D050BC061E063
S11308A086EA90E00E949D0505C062E086EA90E039
S11308B00E949D051092A500C99B07C0CA9B05C054
S11308C08091A000882309F448C08091A10081117F
S11308D030C081E08093A0002BB58AB590E0922BC4
S11308E0C99B13C02091660030916700AC0140950C
S11308F050954217530728F0820F931F9BBD8ABD62
S113090012C08FEF8BBD8ABD0EC02091660030915E
S113091067008217930728F0821B930B9BBD8ABD47
S113092002C01BBC1ABCE0EAF0E08AE0828381E0EA
S11309308183C99B12C0CA9B10C08091A2008823E6
S113094029F081508093A200811107C0E0EAF0E011
S1130950108211821092A50004C08091A50081111B
S11309600FC0809168009FEF980F909368008111E9
S113097007C00E94D8058093A50086E9809368008B
S113098086B1369A0F90DF91CF91FF91EF91BF918D
S1130990AF919F918F917F916F915F914F913F9113
S11309A02F910F900FBE0F901F9018950E9409056C
S11309B00E948D02789464E086EA90E00E949D058E
S11309C0FFCF90E002C0959587956A95E2F780FD88
S11309D005C081E0FA01808380E00895FA018081F6
S11309E0882359F09181992319F09150918305C07E
S11309F096E4FA0191831082089580E0089586EACE
S1130A0090E00E941F05089586EA90E00E94CD05BB
S1130A10089588E087BB80E381BB8CE482BB86E0D9
S1130A2088BB80E687B910BE80E886B989B780683C
S1130A3089BF83E885BD14BC8DE783BD0895FC019F
S1130A408081887F808381E8868399E097831086FC
S1130A50118620E42183928313821482838791E098
S1130A60948715861686808B81E1818B128A138A7E
S1130A701FBC1EBC1DBC1CBC1BBC1ABC8D9A08959B
S1130A808EB5887F8EBDFB018081823099F028F479
S1130A90882341F0813051F00895833079F0843017
S1130AA089F008958EB581608EBD08958EB58260FB
S1130AB08EBD08958EB583608EBD08958EB5846015
S1130AC08EBD08958EB585608EBD08959C01FB0191
S1130AD09081923079F018F4913031F011C0933054
S1130AE061F0943021F00CC0C90106960895C90143
S1130AF001960895C9010B960895C9014096089579
S1130B0080E090E00895CF93DF931F92CDB7DEB7D6
S1130B10FC01908197709983BE016F5F7F4FCF0175
S1130B200E946605FC018BB582838AB5838381E0CC
S1130B3084830F90DF91CF910895FF920F931F93B9
S1130B40CF93DF931F92CDB7DEB78C01F62E0E94B0
S1130B5083056F2D6770F8019081987F962B9083A1
S1130B606983BE016F5F7F4FC8010E946605FC0167
S1130B7080818FBD81818EBD8481882329F082810B
S1130B808BBD83818ABD02C01BBC1ABC0F90DF9150
S1130B90CF911F910F91FF90089589B78F7E89BFE0
S1130BA01FBC1EBC8D981DBC1CBC1BBC1ABC08956C
S1130BB08F929F92AF92BF92CF92DF92EF92FF9269
S1130BC00F931F93CF93DF9300D000D01F92CDB724
S1130BD0DEB70E94580280E00E944A028091A3007E
S1130BE0982F92959695969593708091A400817014
S1130BF0880F880F892B90E08130910509F496C005
S1130C008230910509F49EC0892B09F0A6C089E6BB
S1130C1090E00E947002809167008F93809166003B
S1130C208F938EE690E09F938F938E010F5F1F4FFB
S1130C301F930F930E94040DC8010E94700288E262
S1130C400E944A0283E790E00E9470028EE20E94B2
S1130C504A028BB5CAB4D12CD82A0D2C000CEE084C
S1130C60FF088FEFC81AD80AE80AF80AA0EDB7E01F
S1130C70A70196010E94870B0E9437074B015C0174
S1130C800F900F900F900F900F900F9020E034E290
S1130C9044E75BE40E94C00618160CF1A501940118
S1130CA060E074E284E79BE40E94C5069F938F93FF
S1130CB07F936F938AE790E09F938F931F930F9393
S1130CC00E94040DC8010E94700280E890E00E9416
S1130CD070020FB6F894DEBF0FBECDBF3EC0A701B1
S1130CE09601220F331F441F551F60E074E284EF06
S1130CF090E00E94650B3F932F9380E790E09F93D1
S1130D008F938E010F5F1F4F1F930F930E94040D4B
S1130D10C8010E94700281E890E00E9470020F9066
S1130D200F900F900F900F900F9017C084E890E0F1
S1130D300E94700288E20E944A0283E790E00E94C7
S1130D4070020BC08EE890E00E94700288E20E945C
S1130D504A0283E790E00E94700281E00F900F90B6
S1130D600F900F900F90DF91CF911F910F91FF90F3
S1130D70EF90DF90CF90BF90AF909F908F900895A9
S1130D800E94740708F481E008950E94D9060C9427
S1130D90AF070E94A80758F00E94A10740F029F469
S1130DA05F3F29F00C94980751110C94E3070C94BD
S1130DB09E070E94C00768F39923B1F3552391F36A
S1130DC0951B550BBB27AA2762177307840738F0B6
S1130DD09F5F5F4F220F331F441FAA1FA9F335D013
S1130DE00E2E3AF0E0E832D091505040E695001CC7
S1130DF0CAF72BD0FE2F29D0660F771F881FBB1F81
S1130E00261737074807AB07B0E809F0BB0B802D5E
S1130E10BF01FF2793585F4F3AF09E3F510578F08A
S1130E200C9498070C94E3075F3FE4F3983ED4F3E3
S1130E30869577956795B795F7959F5FC9F7880F5E
S1130E40911D9695879597F90895E1E0660F771FB0
S1130E50881FBB1F621773078407BA0720F0621B41
S1130E60730B840BBA0BEE1F88F7E0950895E89492
S1130E7009C097FB3EF490958095709561957F4FDE
S1130E808F4F9F4F9923A9F0F92F96E9BB2793958C
S1130E90F695879577956795B795F111F8CFFAF49C
S1130EA0BB0F11F460FF1BC06F5F7F4F8F4F9F4FCD
S1130EB016C0882311F096E911C0772321F09EE82B
S1130EC0872F762F05C0662371F096E8862F70E091
S1130ED060E02AF09A95660F771F881FDAF7880F6B
S1130EE09695879597F90895990F0008550FAA0BC1
S1130EF0E0E8FEEF16161706E807F907C0F0121629
S1130F001306E407F50798F0621B730B840B950B2B
S1130F1039F40A2661F0232B242B252B21F4089580
S1130F200A2609F4A140A6958FEF811D811D08951D
S1130F3097F99F6780E870E060E008959FEF80EC88
S1130F40089500240A94161617061806090608952B
S1130F5000240A9412161306140605060895092E91
S1130F600394000C11F4882352F0BB0F40F4BF2B00
S1130F7011F460FF04C06F5F7F4F8F4F9F4F089540
S1130F8057FD9058440F551F59F05F3F71F0479536
S1130F90880F97FB991F61F09F3F79F0879508951B
S1130FA0121613061406551FF2CF4695F1DF08C03A
S1130FB0161617061806991FF1CF86957105610557
S1130FC008940895E894BB2766277727CB0197F9FF
S1130FD00895A3E1B0E0EFEEF7E00C94920B6C01FE
S1130FE04B012A01FC0117821682838181FF43C3CE
S1130FF0AE014F5F5F4F3A01F6019381F40193FD17
S1131000859193FF81914F01882309F430C3853280
S113101039F493FD859193FF81914F01853239F421
S1131020B60190E00E94CC0C52012501E5CF10E0FE
S1131030F12C20E02032A0F48B3269F030F48032BD
S113104059F0833269F420612CC08D3239F0803339
S113105039F4216026C02260246023C0286021C0A6
S113106027FD27C030ED380F3A3078F426FF06C04C
S1131070FAE01F9F300D1124132F13C04AE0F49E91
S1131080300D1124F32E20620CC08E3221F426FD83
S1131090EEC2206406C08C3611F4206802C0883683
S11310A041F4F40193FD859193FF81914F018111E6
S11310B0C1CF9BEB980F933018F42061805E06C07B
S11310C09BE9980F933008F071C12F7E26FF16E03C
S11310D02F73322E853619F42064322E08C08636DA
S11310E021F4F22FF0683F2E02C01111115037FE87
S11310F007C01C3350F4EE24E394E10E27E00BC048
S1131100183038F027E017E005C027E04CE3E42E60
S113111002C0212FE12C520144E0A40EB11CF201C3
S113112060817181828193810E2DA3010E94DE0B67
S11311302C01098100FF02C003FF07C031FC08C075
S113114032FE09C030E2232E07C02DE2222E04C055
S11311509BE2292E01C0212C802F8C7019F02110C4
S113116068C2A8C237FE0FC0E40C04FF04C08A8121
S1131170813309F4EA941E1474F5F8E0FE1578F549
S113118088E0E82E2CC036FC2AC0812F90E084151C
S113119095059CF02CEF42162FEF520674F0432D68
S11311A04068342E0AC0E2E0F0E0EC0FFD1FE10FCE
S11311B0F11D8081803319F411501111F4CF37FEE1
S11311C00EC0EE24E394E10E812F90E048165906F8
S11311D02CF4141904C0EE24E39401C010E037FE8B
S11311E006C01414150434F4C201019605C085E048
S11311F090E002C081E090E021100196112331F0CB
S1131200212F30E02F5F3F4F820F931F2F2D30E0AF
S11312108217930714F4F81A01C0F12C832D8970F6
S113122049F4FF2039F0B60180E290E00E94CC0C32
S1131230FA94F7CF222029F0B601822D90E00E9483
S1131240CC0C33FC09C0FF2039F0B60180E390E0F8
S11312500E94CC0CFA94F7CF37FE5AC0942D852DFA
S113126057FE02C090E080E0292E382E20E030E0C6
S1131270A2014E1951095D874C87A20142195309F5
S11312805F874E87612F70E044275527461B570B15
S1131290598B488B5FEF2516350649F4B6018EE26B
S11312A090E02A8B3B8B0E94CC0C3B892A89421408
S11312B053046CF04C855D854215530544F4EE856A
S11312C0FF85E20FF31FE60DF71D818101C080E366
S11312D051E0251A31082F5F3F4F48895989241658
S11312E035064CF0B60190E02A8B3B8B0E94CC0C67
S11312F02A893B89CFCF2414350439F49A81963353
S113130018F4953311F404FF81E3B60190E04BC067
S11313108A81813309F00F7EB60190E00E94CC0CE3
S1131320111105C034FC18C085E690E017C0B60161
S11313308EE290E00E94CC0C82E0EE24E394E80E6E
S1131340F301E80FF11D8081B60190E00E94CC0CFE
S113135011508E2D91F7E6CF85E490E0B6010E94FE
S1131360CC0C57FC05C04114510439F404FF05C0EA
S11313705194419451088DE201C08BE2B60190E092
S11313800E94CC0C80E39AE0491651042CF08F5F44
S11313905AE0451A5108F7CFB60190E00E94CC0CF0
S11313A0B601C201C0960E94CC0C57C1833631F0FD
S11313B0833779F0833509F058C021C05201E2E047
S11313C0AE0EB11CF2018081898301E010E023019B
S11313D014C05201F2E0AF0EB11CF2014080518002
S11313E026FF03C0612F70E002C06FEF7FEFC201E0
S11313F02A8B0E94C10C8C012A892F7715C05201B7
S1131400F2E0AF0EB11CF2014080518026FF03C010
S1131410612F70E002C06FEF7FEFC2012A8B0E9440
S1131420B60C8C012A892068322E23FD1AC08F2D18
S113143090E008171907A8F4B60180E290E00E9432
S1131440CC0CFA94F4CFF20137FC859137FE8191EC
S11314502F01B60190E00E94CC0CF110FA940150D7
S113146011090115110579F7F8C0843611F0893690
S113147059F5520127FF09C0F4E0AF0EB11CF20187
S113148060817181828193810AC0F2E0AF0EB11C48
S1131490F20160817181072E000C880B990B2F7665
S11314A0322E97FF09C090958095709561957F4F76
S11314B08F4F9F4F2068322E2AE030E0A3010E9414
S11314C0270DE82EE6183FC0022F853721F40F7E42
S11314D02AE030E01DC0097F8F3691F018F488357A
S11314E059F0C5C0803719F0883711F0C0C00061C9
S11314F004FF09C0046007C024FF08C0066006C0DA
S113150028E030E005C020E130E002C020E132E014
S1131510520107FF09C0F4E0AF0EB11CF201608173
S113152071818281938108C0F2E0AF0EB11CF20197
S11315306081718180E090E0A3010E94270DE82E74
S1131540E6180F77302E36FE0BC0332D3E7FE116A2
S113155050F434FE0AC032FC08C0332D3E7E05C070
S11315600E2D332D03C00E2D01C0012F34FF0CC0EE
S1131570FE01EE0DF11D8081803311F4397E08C027
S113158032FF05C00E5F04C0832F867809F00F5F19
S113159033FD13C030FF06C01E2D0F1518F41F0DA8
S11315A0101B0F2D0F1568F4B60180E290E03B8B01
S11315B00E94CC0C0F5F3B89F5CF0F1510F4F01A85
S11315C001C0F12C34FF12C0B60180E390E03B8BE4
S11315D00E94CC0C3B8932FF17C031FD03C088E761
S11315E090E002C088E590E0B6010CC0832F8678B5
S11315F059F031FF02C08BE201C080E237FD8DE279
S1131600B60190E00E94CC0CE11638F4B60180E3F8
S113161090E00E94CC0C1150F7CFEA94F301EE0D48
S1131620F11D8081B60190E00E94CC0CE110F5CF51
S113163014C0F4E0FF1558F584E0F81A33FE1EC018
S1131640211026C003FF2AC004E510E0F32DF07139
S11316503F2EF8018491811124C0FF2009F4E5CCC8
S1131660B60180E290E00E94CC0CFA94F6CFF60129
S11316708681978126C08FEF9FEF23C0B60180E259
S113168090E00E94CC0CFA94F110F8CFD9CFF12C51
S1131690B601822D90E00E94CC0CD4CF08E510E076
S11316A0D5CF31108052B60190E00E94CC0C0F5F70
S11316B01F4FCFCF23E02F1510F483E0BECFF12CC2
S11316C0C1CF6396E2E10C94AE0BA1E21A2EAA1BE1
S11316D0BB1BFD010DC0AA1FBB1FEE1FFF1FA217DE
S11316E0B307E407F50720F0A21BB30BE40BF50BDB
S11316F0661F771F881F991F1A9469F76095709564
S1131700809590959B01AC01BD01CF0108950E9485
S1131710CF0BA59F900DB49F900DA49F800D911D9C
S1131720112408952F923F924F925F926F927F926D
S11317308F929F92AF92BF92CF92DF92EF92FF92DD
S11317400F931F93CF93DF93CDB7DEB7CA1BDB0B89
S11317500FB6F894DEBF0FBECDBF09942A8839882E
S113176048885F846E847D848C849B84AA84B98435
S1131770C884DF80EE80FD800C811B81AA81B98141
S1131780CE0FD11D0FB6F894DEBF0FBECDBFED0155
S11317900895EE0FFF1F0590F491E02D0994A29F88
S11317A0B001B39FC001A39F700D811D1124911D31
S11317B0B29F700D811D1124911D0895283008F0E9
S11317C027E03327DA01990F311D87FD91600096D8
S11317D06105710539F432602E5F3D9330E32A953B
S11317E0E1F708959F3F30F080387105610509F0F5
S11317F03C5F3C5F3D93913008F08068911DDF931E
S1131800CF931F930F93FF92EF92192F987F969582
S1131810E92F96959695E90FFF27EA54FF4F9927EC
S11318203327EE24FF24A701E701059008940794C9
S113183028F4360FE71EF81E491F511D660F771F47
S1131840881F991F0694A1F70590079428F4E70EC2
S1131850F81E491F561FC11D770F881F991F661F49
S11318600694A1F70590079428F4F80E491F561F13
S1131870C71FD11D880F991F661F771F0694A1F7F4
S11318800590079420F4490F561FC71FD81F990FBE
S1131890661F771F881F0694A9F784911095177007
S11318A041F0D695C79557954795F794E7941A95BF
S11318B0C1F7ECE5F0E068941590159135916591C8
S11318C0959105907FE27395E118F10A430B560B4D
S11318D0C90BD009C0F7E10CF11E431F561FC91FE5
S11318E0D01D7EF4703311F48A95E6CFE89401504C
S11318F030F0080F0AF40027021708F4202F23956C
S1131900022F7A3328F079E37D932A95E9F710C002
S11319107D932A9589F6069497956795379517953B
S11319201794E118F10A430B560BC90BD00998F030
S113193023957E9173957A3308F070E37C9320139A
S1131940B8F77E9170617D9330F0839571E37D9358
S113195070E32A95E1F71124EF90FF900F911F9106
S1131960CF91DF91992787FD90950895FC0105900B
S1131970615070400110D8F7809590958E0F9F1F8D
S11319800895FC016150704001900110D8F78095D2
S113199090958E0F9F1F08950F931F93CF93DF93FE
S11319A0FB01238121FD03C08FEF9FEF28C022FF9D
S11319B016C046815781248135814217530744F468
S11319C0A081B1819D012F5F3F4F318320838C9390
S11319D0268137812F5F3F4F3783268310C0EB0169
S11319E0092F182F0084F185E02D0995892BE1F644
S11319F08E819F8101969F838E83812F902FDF910B
S1131A00CF911F910F910895AEE0B0E0EAE0FDE0C0
S1131A100C94A00B0D891E8986E08C831A8309839C
S1131A208FEF9FE79E838D83AE01475E5F4F6F8983
S1131A30788DCE0101960E94E9072F813885F8013F
S1131A40E20FF31F10822E96E4E00C94BC0BFA0113
S1131A50AA27283051F1203181F1E8946F936E7FE9
S1131A606E5F7F4F8F4F9F4FAF4FB1E03ED0B4E0DA
S1131A703CD0670F781F891F9A1FA11D680F791F1B
S1131A808A1F911DA11D6A0F711D811D911DA11D2C
S1131A9020D009F468943F912AE0269F112430193C
S1131AA0305D3193DEF6CF010895462F4770405DD7
S1131AB04193B3E00FD0C9F7F6CF462F4F70405D86
S1131AC04A3318F0495D31FD4052419302D0A9F7E1
S1131AD0EACFB4E0A6959795879577956795BA95DB
S1131AE0C9F700976105710508959B01AC010A2EA1
S1131AF006945795479537952795BA95C9F7620F78
S1131B00731F841F951FA01D089510E0CCEAD0E038
S1131B1004C0FE010E94C90B2196CD3AD107C9F732
S1071B20F894FFCF63
S1131B2400460046004601009643544320002078B2
S1131B34257500467265713A200025302E336600FF
S1131B444B487A00466173742050574D2000506806
S1131B5461736520436F72722E2050574D2000002C
S9030000FC
