:100000000C942C000C9454000C9454000C94C602D4
:100010000C9454000C9454000C9454000C94540010
:100020000C9454000C9454000C9454000C94540000
:100030000C9454000C9454000C9454000C945400F0
:100040000C9454000C9454000C9454000C945400E0
:100050000C9454003C04410411241FBECFE5D4E0AD
:10006000DEBFCDBF10E0A0E6B0E0EAEBFFE002C0EB
:1000700005900D92A836B107D9F720E0A8E6B0E0C8
:1000800001C01D92A238B207E1F710E0CBE2D0E048
:1000900004C02197FE010E941505CA32D107C9F795
:1000A0000E9418040C94D0070C940000CF93DF93A7
:1000B000CDB7DEB785E390E025E330E0F90120819C
:1000C0002F7BFC012083DF91CF910895CF93DF93A5
:1000D000CDB7DEB785E390E025E330E0F90120817C
:1000E0002064FC012083DF91CF910895CF93DF93AB
:1000F000CDB7DEB784E390E024E330E0F90120815E
:100100002064FC012083DF91CF910895CF93DF938A
:1001100000D0CDB7DEB789836A838A81882351F006
:1001200085E390E025E330E0F90120812061FC01C6
:10013000208309C085E390E025E330E0F9012081C8
:100140002F7EFC0120838981882354F485E390E08D
:1001500025E330E0F90120812860FC01208309C0FB
:1001600085E390E025E330E0F9012081277FFC0161
:1001700020838981882F90E080749927892B51F002
:1001800085E390E025E330E0F90120812460FC0163
:10019000208309C085E390E025E330E0F901208168
:1001A0002B7FFC0120838981882F90E08072992722
:1001B000892B51F085E390E025E330E0F9012081BF
:1001C0002260FC01208309C085E390E025E330E054
:1001D000F90120812D7FFC0120838981882F90E007
:1001E00080719927892B51F085E390E025E330E079
:1001F000F90120812160FC01208309C085E390E0A2
:1002000025E330E0F90120812E7FFC01208300C02E
:100210000E946600F2E0FA95F1F700C00E945600D5
:100220008981882F90E088709927892B51F085E388
:1002300090E025E330E0F90120812860FC01208373
:1002400009C085E390E025E330E0F9012081277FB4
:10025000FC0120838981882F90E084709927892B65
:1002600051F085E390E025E330E0F901208124603E
:10027000FC01208309C085E390E025E330E0F9012B
:1002800020812B7FFC0120838981882F90E0827060
:100290009927892B51F085E390E025E330E0F901BF
:1002A00020812260FC01208309C085E390E025E3E2
:1002B00030E0F90120812D7FFC0120838981882F86
:1002C00090E081709927892B51F085E390E025E338
:1002D00030E0F90120812160FC01208309C085E321
:1002E00090E025E330E0F90120812E7FFC0120839E
:1002F00000C00E946600F2E0FA95F1F700C00E948B
:10030000560085E390E025E330E0F9012081286084
:10031000FC01208385E390E025E330E0F9012081B2
:100320002460FC01208385E390E025E330E0F901BF
:1003300020812260FC01208385E390E025E330E00A
:10034000F90120812160FC0120838A81882351F4F6
:100350008981843038F48FE999E10197F1F700C081
:10036000000004C095ED9A95F1F700000F900F90F2
:10037000DF91CF910895CF93DF931F92CDB7DEB772
:10038000898360E089810E9486000F90DF91CF9180
:100390000895CF93DF93CDB7DEB781E00E94BB0114
:1003A000DF91CF910895CF93DF93CDB7DEB70E9451
:1003B000760084E390E024E330E0F90120812061BD
:1003C000FC01208384E390E024E330E0F901208104
:1003D0002860FC01208384E390E024E330E0F9010D
:1003E00020812460FC01208384E390E024E330E05A
:1003F000F90120812260FC01208384E390E024E362
:1004000030E0F90120812160FC0120830E94560028
:1004100085E390E025E330E0F90120812F7EFC01A7
:10042000208385E390E025E330E0F9012081286016
:10043000FC01208385E390E025E330E0F901208191
:100440002460FC01208385E390E025E330E0F9019E
:1004500020812260FC01208385E390E025E330E0E9
:10046000F90120812160FC0120838FE59AEE01973C
:10047000F1F700C0000085E390E025E330E0F901EA
:100480002081277FFC01208385E390E025E330E095
:10049000F90120812B7FFC01208300C00E946600AF
:1004A000F2E0FA95F1F700C00E9456008FE090E468
:1004B0000197F1F700C000000E94660092E09A9553
:1004C000F1F700C00E945600EFE8F1E03197F1F734
:1004D00000C000000E946600F2E0FA95F1F700C04B
:1004E0000E94560085ED8A95F1F7000085E390E0C3
:1004F00025E330E0F90120812E7FFC01208300C03C
:100500000E946600F2E0FA95F1F700C00E945600E2
:1005100085ED8A95F1F7000085E390E025E330E072
:10052000F90120812E7FFC01208300C00E9466001B
:10053000F2E0FA95F1F700C00E94560082E08A9539
:10054000F1F700C085E390E025E330E0F901208178
:100550002860FC01208300C00E946600F2E0FA954A
:10056000F1F700C00E94560085ED8A95F1F7000072
:1005700088E00E94BB010E94C90186E00E94BB0185
:100580008CE00E94BB01DF91CF9108951F920F92E2
:100590000FB60F9211242F933F934F935F936F9356
:1005A0007F938F939F93AF93BF93EF93FF93CF93DB
:1005B000DF931F92CDB7DEB712BE80B344E650E0A2
:1005C00066E00E941E048823F1F080916B00877022
:1005D00090E005972CF0EBE6F0E08081887F808347
:1005E000EBE6F0E08081282F277091E0920F977062
:1005F000887F892B80832983BE016F5F7F4F8DE6C3
:1006000090E00E947D0480B342E650E063E00E94E7
:100610001E04882309F447C080916B008695869557
:1006200086958770282F30E0253031053CF0EBE6C9
:10063000F0E08081877C886080831AC08F5F87703C
:10064000EBE6F0E0982F990F990F990F8081877C46
:10065000892B80832130310591F01CF4232B19F56F
:1006600007C02230310591F023303105B1F01BC0B5
:1006700081E090E0909367008093660014C08AE068
:1006800090E090936700809366000DC084E690E050
:10069000909367008093660006C088EE93E0909385
:1006A00067008093660080B340E650E062E00E94FD
:1006B0001E04882309F458C080916B00982F9295EE
:1006C00096959695937080916C008170880F880F35
:1006D000892B282F30E02430310564F0EBE6F0E080
:1006E00080818F7380648083ECE6F0E080818E7F70
:1006F000808323C08F5FEBE6F0E0482F4295440FE4
:10070000440F407C90819F73942B908382FB9927A8
:1007100090F9ECE6F0E080818E7F892B8083213098
:10072000310589F01CF4232BF9F407C02230310580
:1007300081F02330310599F017C064E08DE690E038
:100740000E94DA0411C061E08DE690E00E94DA04B4
:100750000BC062E08DE690E00E94DA0405C063E021
:100760008DE690E00E94DA04C99B07C0CA9B05C0D1
:1007700080916800882309F445C080916900811147
:1007800030C081E0809368002BB58AB590E0922B51
:10079000C99B13C02091660030916700AC01409561
:1007A00050954217530728F0820F931F9BBD8ABDB7
:1007B00012C08FEF8BBD8ABD0EC0209166003091B4
:1007C00067008217930728F0821B930B9BBD8ABD9D
:1007D00002C01BBC1ABCE8E6F0E08AE0828381E03C
:1007E0008183C99B0FC0CA9B0DC080916A0088237A
:1007F00029F0815080936A00811104C0E8E6F0E09E
:100800001082118286B1369A0F90DF91CF91FF91BD
:10081000EF91BF91AF919F918F917F916F915F9178
:100820004F913F912F910F900FBE0F901F901895F1
:100830000E9446040E94D3017894FFCF90E002C04A
:10084000959587956A95E2F780FD05C081E0FA01EC
:10085000808380E00895FA018081882359F0918196
:10086000992319F09150918305C096E4FA01918380
:100870001082089580E008958DE690E00E945C0467
:1008800008958DE690E00E940A05089588E087BBF0
:1008900080E381BB8CE482BB86E088BB80E687B9BD
:1008A00010BE80E886B989B7806889BF83E885BDB6
:1008B00014BC8DE783BD0895FC018081887F80830F
:1008C00081E8868399E097831086118620E421834E
:1008D000928313821482838791E09487158616860B
:1008E000808B81E1818B128A138A1FBC1EBC1DBCC8
:1008F0001CBC1BBC1ABC8D9A08958EB5887F8EBD1A
:10090000FB018081823099F028F4882341F0813006
:1009100051F00895833079F0843089F008958EB5D0
:1009200081608EBD08958EB582608EBD08958EB5AE
:1009300083608EBD08958EB584608EBD08958EB59A
:1009400085608EBD08959C01FB019081923079F005
:1009500018F4913031F011C0933061F0943021F0EF
:100960000CC0C90106960895C90101960895C901F0
:100970000B960895C9014096089580E090E008958F
:10098000CF93DF931F92CDB7DEB7FC0190819770B4
:100990009983BE016F5F7F4FCF010E94A304FC01CA
:1009A0008BB582838AB5838381E084830F90DF9146
:1009B000CF910895FF920F931F93CF93DF931F92D0
:1009C000CDB7DEB78C01F62E0E94C0046F2D677084
:1009D000F8019081987F962B90836983BE016F5FA9
:1009E0007F4FC8010E94A304FC0180818FBD8181DB
:1009F0008EBD8481882329F082818BBD83818ABD4D
:100A000002C01BBC1ABC0F90DF91CF911F910F91B8
:100A1000FF90089589B78F7E89BF1FBC1EBC8D983B
:100A20001DBC1CBC1BBC1ABC0895EE0FFF1F05901B
:100A3000F491E02D0994ACE0B0E0E1E2F5E00C9433
:100A400099077C016B018A01FC0117821682838160
:100A500081FFBDC1CE0101964C01F7019381F601E2
:100A600093FD859193FF81916F01882309F4ABC1B8
:100A7000853239F493FD859193FF81916F01853221
:100A800029F4B70190E00E940307E7CF512C312CE5
:100A900020E02032A0F48B3269F030F4803259F03B
:100AA000833269F420612CC08D3239F0803339F4FF
:100AB000216026C02260246023C0286021C027FD59
:100AC00027C030ED380F3A3078F426FF06C0FAE040
:100AD0005F9E300D1124532E13C08AE0389E300DD6
:100AE0001124332E20620CC08E3221F426FD6BC1FE
:100AF000206406C08C3611F4206802C0883641F4A8
:100B0000F60193FD859193FF81916F018111C1CF12
:100B1000982F9F7D9554933028F40C5F1F4FFFE36F
:100B2000F9830DC0833631F0833771F0833509F0D6
:100B30005BC022C0F801808189830E5F1F4F44246F
:100B40004394512C540115C03801F2E06F0E711C12
:100B5000F801A080B18026FF03C0652D70E002C0BF
:100B60006FEF7FEFC5012C870E94F8062C018301EF
:100B70002C852F77222E17C03801F2E06F0E711CE2
:100B8000F801A080B18026FF03C0652D70E002C08F
:100B90006FEF7FEFC5012C870E94ED062C012C859D
:100BA0002068222E830123FC1BC0832D90E0481671
:100BB0005906B0F4B70180E290E00E9403073A942E
:100BC000F4CFF50127FC859127FE81915F01B701E4
:100BD00090E00E94030731103A94F1E04F1A510857
:100BE0004114510471F7E5C0843611F0893639F5A6
:100BF000F80127FF07C060817181828193810C5FBA
:100C00001F4F08C060817181072E000C880B990B63
:100C10000E5F1F4F2F76722E97FF09C0909580951B
:100C2000709561957F4F8F4F9F4F2068722E2AE0FD
:100C300030E0A4010E943B07A82EA81844C08537C5
:100C400029F42F7EB22E2AE030E025C0F22FF97F62
:100C5000BF2E8F36C1F018F4883579F0B4C08037D4
:100C600019F0883721F0AFC02F2F2061B22EB4FECB
:100C70000DC08B2D8460B82E09C024FF0AC09F2FA1
:100C80009660B92E06C028E030E005C020E130E0D3
:100C900002C020E132E0F801B7FE07C06081718137
:100CA000828193810C5F1F4F06C06081718180E05B
:100CB00090E00E5F1F4FA4010E943B07A82EA818CA
:100CC000FB2DFF777F2E76FE0BC0372D3E7FA514C0
:100CD00050F474FE0AC072FC08C0372D3E7E05C079
:100CE000BA2C372D03C0BA2C01C0B52C34FF0DC06F
:100CF000FE01EA0DF11D8081803311F4397E09C0B7
:100D000032FF06C0B394B39404C0832F867809F0F1
:100D1000B39433FD13C030FF06C05A2CB31418F43B
:100D2000530C5B18B32CB31468F4B70180E290E065
:100D30003C870E940307B3943C85F5CFB31410F4AD
:100D40003B1801C0312C34FF12C0B70180E390E0A2
:100D50003C870E9403073C8532FF17C031FD03C06A
:100D600088E790E002C088E590E0B7010CC0832FCF
:100D7000867859F031FF02C08BE201C080E237FD76
:100D80008DE2B70190E00E940307A51438F4B70183
:100D900080E390E00E9403075A94F7CFAA94F401ED
:100DA000EA0DF11D8081B70190E00E940307A110B8
:100DB000F5CF332009F451CEB70180E290E00E94D4
:100DC00003073A94F6CFF7018681978102C08FEF2F
:100DD0009FEF2C96E2E10C94B507FC010590615061
:100DE00070400110D8F7809590958E0F9F1F089541
:100DF000FC016150704001900110D8F780959095EA
:100E00008E0F9F1F08950F931F93CF93DF93FB01C6
:100E1000238121FD03C08FEF9FEF28C022FF16C062
:100E200046815781248135814217530744F4A081BC
:100E3000B1819D012F5F3F4F318320838C932681A9
:100E400037812F5F3F4F3783268310C0EB01092F77
:100E5000182F0084F185E02D0995892BE1F68E810C
:100E60009F8101969F838E83812F902FDF91CF9159
:100E70001F910F910895FA01AA27283051F12031CE
:100E800081F1E8946F936E7F6E5F7F4F8F4F9F4F1E
:100E9000AF4FB1E03ED0B4E03CD0670F781F891F60
:100EA0009A1FA11D680F791F8A1F911DA11D6A0F2E
:100EB000711D811D911DA11D20D009F468943F91E1
:100EC0002AE0269F11243019305D3193DEF6CF01E0
:100ED0000895462F4770405D4193B3E00FD0C9F7A6
:100EE000F6CF462F4F70405D4A3318F0495D31FD13
:100EF0004052419302D0A9F7EACFB4E0A695979566
:100F0000879577956795BA95C9F70097610571053B
:100F100008959B01AC010A2E069457954795379585
:100F20002795BA95C9F7620F731F841F951FA01DDF
:100F300008952F923F924F925F926F927F928F927D
:100F40009F92AF92BF92CF92DF92EF92FF920F9358
:100F50001F93CF93DF93CDB7DEB7CA1BDB0B0FB662
:100F6000F894DEBF0FBECDBF09942A88398848881F
:100F70005F846E847D848C849B84AA84B984C884B5
:100F8000DF80EE80FD800C811B81AA81B981CE0FAC
:100F9000D11D0FB6F894DEBF0FBECDBFED01089591
:100FA00010E0CBE2D0E004C0FE010E9415052196BE
:0A0FB000CC32D107C9F7F894FFCF47
:080FBA0000460046004601005C
:00000001FF
